:020000040800F2
:10000000000002205909000855090008995100080C
:1000100055090008550900085509000800000000AE
:10002000000000000000000000000000550900086A
:100030005509000800000000550900081D5100087E
:100040005509000855090008550900085509000818
:100050005509000855090008550900085509000808
:1000600055090008550900085509000849400008CD
:1000700055400008FD230008614000086D4000085D
:1000800031180108E1310008550900085509000838
:1000900055090008550900085509000855090008C8
:1000A00055090008550900085509000855090008B8
:1000B0005D0C0108690C0108750C01081532000877
:1000C000550900082132000855090008754A000842
:1000D000814A00086516010891160108C516010835
:1000E00055090008550900080000000055090008DE
:1000F0005509000855090008550900085509000868
:100100005509000855090008810C01088D4A0008AE
:10011000F91601082D170108C9260008550900081D
:10012000B1260008BD260008B14A0008E54A0008CB
:100130006518010855090008550900085509000807
:1001400000000000000000000000000000000000AF
:1001500055090008550900085509000861170108EC
:100160002D320008550900082D5100085151000892
:10017000550900087551000855090008550900087F
:10018000550900085509000895170108C917010805
:10019000994A0008A54A00085509000855090008B1
:1001A00055090008550900085509000855090008B7
:1001B000693D00085509000855090008550900085F
:1001C0005509000855090008550900085509000897
:1001D0005509000855090008550900085509000887
:1001E0005509000855090008550900085509000877
:1001F0005509000855090008550900085509000867
:100200005509000855090008550900085509000856
:100210005509000855090008550900085509000846
:10022000550900085509000855090008000000009C
:10023000550900085509000800000000550900088C
:100240005509000855090008550900085509000816
:100250005509000855090008550900085509000806
:1002600055090008550900085509000855090008F6
:100270005509000855090008FD1701080000000095
:10028000550900085509000855090008000000003C
:08029000000000005509000800
:1002980010B5054C237833B9044B13B10448AFF3B8
:1002A80000800123237010BDE0030024000000003B
:1002B800304D010808B5034B1BB103490348AFF3A0
:1002C800008008BD00000000E4030024304D010850
:1002D80081F0004102E000BF83F0004330B54FEAEF
:1002E80041044FEA430594EA050F08BF90EA020F5C
:1002F8001FBF54EA000C55EA020C7FEA645C7FEAEF
:10030800655C00F0E2804FEA5454D4EB5555B8BF11
:100318006D420CDD2C4480EA020281EA030382EA82
:10032800000083EA010180EA020281EA0303362D14
:1003380088BF30BD11F0004F4FEA01314FF4801CE7
:100348004CEA113102D0404261EB410113F0004FF9
:100358004FEA03334CEA133302D0524263EB4303B0
:1003680094EA050F00F0A780A4F10104D5F1200E4E
:100378000DDB02FA0EFC22FA05F2801841F10001A9
:1003880003FA0EF2801843FA05F359410EE0A5F17D
:1003980020050EF1200E012A03FA0EFC28BF4CF0AE
:1003A800020C43FA05F3C01851EBE37101F0004564
:1003B80007D54FF0000EDCF1000C7EEB00006EEB71
:1003C8000101B1F5801F1BD3B1F5001F0CD34908FB
:1003D8005FEA30004FEA3C0C04F101044FEA445252
:1003E80012F5800F80F09A80BCF1004F08BF5FEAD9
:1003F800500C50F1000041EB045141EA050130BDB9
:100408005FEA4C0C404141EB0101013C28BFB1F5CA
:10041800801FE9D291F0000F04BF01460020B1FA15
:1004280081F308BF2033A3F10B03B3F120020CDAE8
:100438000C3208DD02F1140CC2F10C0201FA0CF0C6
:1004480021FA02F10CE002F11402D8BFC2F1200C2B
:1004580001FA02F120FA0CFCDCBF41EA0C019040E1
:10046800E41AA2BF01EB0451294330BD6FEA04042A
:100478001F3C1CDA0C340EDC04F11404C4F1200215
:1004880020FA04F001FA02F340EA030021FA04F327
:1004980045EA030130BDC4F10C04C4F1200220FA7E
:1004A80002F001FA04F340EA0300294630BD21FABC
:1004B80004F0294630BD94F0000F83F4801306BF82
:1004C80081F480110134013D4EE77FEA645C18BF76
:1004D8007FEA655C29D094EA050F08BF90EA020F0D
:1004E80005D054EA000C04BF1946104630BD91EA05
:1004F800030F1EBF0021002030BD5FEA545C05D108
:100508004000494128BF41F0004130BD14F5800446
:100518003CBF01F5801130BD01F0004545F0FE41BA
:1005280041F470014FF0000030BD7FEA645C1ABFEF
:10053800194610467FEA655C1CBF0B46024650EA26
:10054800013406BF52EA033591EA030F41F4002152
:1005580030BD00BF90F0000F04BF0021704730B5D8
:100568004FF4806404F132044FF000054FF00001AD
:1005780050E700BF90F0000F04BF0021704730B56E
:100588004FF4806404F1320410F0004548BF404243
:100598004FF000013EE700BF42004FEAE2014FEA98
:1005A80031014FEA02701FBF12F07F4393F07F4F73
:1005B80081F06051704732F07F4208BF704793F076
:1005C8007F4F04BF41F40021704730B54FF4607489
:1005D80001F0004521F000411CE700BF50EA01028C
:1005E80008BF704730B54FF000050AE050EA010235
:1005F80008BF704730B511F0004502D5404261EBA5
:1006080041014FF4806404F132045FEA915C3FF4E5
:10061800D8AE4FF003025FEADC0C18BF03325FEA82
:10062800DC0C18BF033202EBDC02C2F1200300FA33
:1006380003FC20FA02F001FA03FE40EA0E0021FA58
:1006480002F11444BDE600BF53B94AB9002908BFF6
:1006580000281CBF4FF0FF314FF0FF3000F074B995
:10066800ADF1080C6DE904CE00F006F8DDF804E001
:10067800DDE9022304B070472DE9F047089D0446E0
:100688008E46002B4DD18A42944669D9B2FA82F23D
:1006980052B101FA02F3C2F1200120FA01F10CFA79
:1006A80002FC41EA030E94404FEA1C48210CBEFBB1
:1006B800F8F61FFA8CF708FB16E341EA034306FB3A
:1006C80007F199420AD91CEB030306F1FF3080F0C9
:1006D8001F81994240F21C81023E63445B1AA4B216
:1006E800B3FBF8F008FB103344EA034400FB07F7B8
:1006F800A7420AD91CEB040400F1FF3380F00A81F9
:10070800A74240F207816444023840EA0640E41BED
:1007180000261DB1D4400023C5E900433146BDE899
:10072800F0878B4209D9002D00F0EF800026C5E93B
:10073800000130463146BDE8F087B3FA83F6002E53
:100748004AD18B4202D3824200F2F980841A61EBCB
:10075800030301209E46002DE0D0C5E9004EDDE7E9
:1007680002B9FFDEB2FA82F2002A40F09280A1EBD1
:100778000C014FEA1C471FFA8CFE0126200CB1FB26
:10078800F7F307FB131140EA01410EFB03F088421F
:1007980008D91CEB010103F1FF3802D2884200F2AC
:1007A800CB804346091AA4B2B1FBF7F007FB10113E
:1007B80044EA01440EFB00FEA64508D91CEB0404DC
:1007C80000F1FF3102D2A64500F2BB800846A4EB37
:1007D8000E0440EA03409CE7C6F12007B34022FA22
:1007E80007FC4CEA030C20FA07F401FA06F31C4351
:1007F800F9404FEA1C4900FA06F3B1FBF9F8200C5E
:100808001FFA8CFE09FB181140EA014108FB0EF0A3
:10081800884202FA06F20BD91CEB010108F1FF3AF3
:1008280080F08880884240F28580A8F102086144FF
:10083800091AA4B2B1FBF9F009FB101144EA01410D
:1008480000FB0EFE8E4508D91CEB010100F1FF34B8
:100858006CD28E456AD90238614440EA0840A0FB50
:100868000294A1EB0E01A142C846A64656D353D026
:100878005DB1B3EB080261EB0E0101FA07F722FA4A
:1008880006F3F1401F43C5E9007100263146BDE873
:10089800F087C2F12003D8400CFA02FC21FA03F3D6
:1008A800914001434FEA1C471FFA8CFEB3FBF7F057
:1008B80007FB10360B0C43EA064300FB0EF69E427C
:1008C80004FA02F408D91CEB030300F1FF382FD215
:1008D8009E422DD9023863449B1B89B2B3FBF7F6BD
:1008E80007FB163341EA034106FB0EF38B4208D996
:1008F8001CEB010106F1FF3816D28B4214D9023ED7
:100908006144C91A46EA004638E72E46284605E7F4
:100918000646E3E61846F8E64B45A9D2B9EB0208C5
:1009280064EB0C0E0138A3E74646EAE7204694E755
:100938004046D1E7D0467BE7023B614432E7304688
:1009480009E76444023842E7704700BFFEE700BF8A
:100958000B480C4A904203D0121A0B4913F022FE9E
:100968000A480B4A904203D0121A002113F028FEBD
:1009780004F068FE13F0F2FD00F016FBFEE700BF7E
:1009880000000024E0030024644D0108E003002473
:1009980000390024704700BF704700BF704700BF90
:1009A800002954D02DE9F84F834688464FF0000AB5
:1009B800274F284C284E294DDFF8B8902DED028B93
:1009C800F6EE008A264813F02FF89FED268A317834
:1009D80030EE280A244860EE087A87ED000AFCEE1B
:1009E800E77A17EE903A238012F0C6FF20EE080A45
:1009F8001E48BCEEC00A10EE103A2B8013F014F813
:100A080030EE280A31781A4860EE087A87ED010A34
:100A1800FCEEE77A17EE903A638012F0ADFF20EE15
:100A2800080AB9F80010DBE90023BCEEC00A10EE92
:100A3800100A688022F81A10228823F81A200AF16E
:100A4800010AD045BCD1BDEC028BBDE8F88F7047D8
:100A5800400800243004002418040024140400244E
:100A6800E407002400F07F456807002410080024EC
:100A7800980700242C040024704700BF704700BF6B
:100A8800704700BF2DE9F041012482B0134D0F4695
:100A980004FA00F0DFF848801646642322460DF178
:100AA80007018DF80700284604F046FA214640461B
:100AB80002F064F8394622466423284604F046FAD0
:100AC800314664232246284604F040FA0021404675
:100AD80002F054F802B0BDE8F08100BF400A0024DB
:100AE800FC03002400232DE9F0471F4E82B01F4D60
:100AF8001C468DF800308DF8043001A9E0B26A4632
:100B0800FFF7C0FF9DF804709DF800E02846B44642
:100B180000215CF8048B47FA01F24EFA01F3013127
:100B2800B8F1000802F0010A03F0010900F104001D
:100B380018BF4FF0010852464B46D04518BF4CF835
:100B4800042C50F8042C003A18BF01224A4518BF5B
:100B580040F8043C0529DCD1013414361435082C3E
:100B6800CBD102B0BDE8F087880500242806002410
:100B7800214B22481A78597810B500248CB042EAE3
:100B8800012101222346009401F006FF1C48224659
:100B9800022301784078009441EA0021194801F0C5
:100BA800FBFE19482246022301784078009441EA66
:100BB8000021164801F0F0FE154B01210820022201
:100BC8000994049119880A92ADF8081002A91A89A3
:100BD800CDE907040320ADF80C20CDE905449C8835
:100BE8009B890B900B48ADF80A40ADF80E3004F025
:100BF8001BF90CB010BD00BF48460108FC030024D7
:100C080044460108540400244046010868040024AE
:100C1800D8450108400A002438B504460D4604F0BA
:100C280027FB1D4B04EB84049FED1C7ADFED1C3A77
:100C3800B1EE046B2C44B1EE045ADFED1A5A53F8A6
:100C48002420194B801AC000B0F5FA7FA8BF4FF4D2
:100C5800FA70421E07EE902AF8EEE77A9FED0C4BE9
:100C680067EE877A87EEA37AB7EEC77A36EE477BC8
:100C780037EE047BB7EEC77BC7EE057A67EEA57A39
:100C8800FCEEE77A17EE902A1A8038BDAFF30080A1
:100C980000000040E17A843FE404002414AE9F4041
:100CA8000080F94300F07F459C0400240000000008
:100CB8002DE9F04F5A4885B001F054FF002800F0A4
:100CC8009880584B1A460393002313600021564A14
:100CD800564EDFF870A10B46DFF86C814FEAC10B66
:100CE8000024994602915FFA8BFB2546009203E0A7
:100CF80005340135282C40D058F82470E9B256F84C
:100D08002430A7F10100BB42B0FA80F04FEA50103E
:100D180001D0002845D15AF8247046F82400012F44
:100D2800E6D10BF10100424B424A08449FED384B93
:100D38009FED395BB9F1000F19D11770C0B2039A52
:100D480007EE900AD3ED003A1268B8EEE77B06EE9C
:100D5800902A0192B8EEE66B26EE046BA7EE056BBF
:100D6800B7EEC66BF4EE463AF1EE10FA28D1053428
:100D78004FF001090135282CBED102994B46009A43
:100D8800043601310AF1040A043208F10408C9B230
:100D98000529A3D113B9274A82F8009005B0BDE808
:100DA800F08F019104F064FA009B019943F8240044
:100DB80058F82400A0F10100B0FA80F04009AAE731
:100DC800F1EE046A9FED1C7A83ED006A08461B4B1E
:100DD800C6EE267A029967EE877AFCEEE77A17EE76
:100DE800902A1A80FFF718FF009B43F82490B94611
:100DF8007EE7134801F0B6FE0A4B1A46039310B17A
:100E08000223136062E7012313605FE7AFF30080FA
:100E180052B81E85EB51F03FC3F5285C8FC2B53F31
:100E28005404002484050024E4040024C806002493
:100E3800E00400241804002400F07F452C0400245A
:100E480068040024280600248805002400B50C4AFC
:100E580087B0012110200023B2F810C0039101A926
:100E6800928A8DF81400074801930493ADF808C0DE
:100E7800ADF80A2002F052FB07B05DF804FB00BF92
:100E8800D8450108CC0700241B4B70B59A7A1B4C37
:100E98001B4DFF2A2168296013D09A7EFF2A20D093
:100EA80093F82A30FF2B16D0164E33687BB104F026
:100EB800DFF93368C01A18288CBF00232B68236019
:100EC80070BD01210F4B002221601A6070BD04F033
:100ED800CFF93060EBE704210A4B002221601A6049
:100EE80070BD022301210848236000F091FC054BE6
:100EF80000221A6070BD00BFA0040024440A002428
:100F08003C0A0024480800244C08002410B52DEDA4
:100F1800028BB0EE408AFFF7B7FF1E4B1B78EBB190
:100F2800012B18D11C4BB0EE480A1C4A1B681268EA
:100F38001B4C9A42DBB21B4818BF002284ED0D8A75
:100F480018BF6264082B28BF002384F82C3012F0E5
:100F580025FF84ED120ABDEC028B10BD0E4BB0EEDE
:100F6800480A0E4A1B6812680D4C9A42DBB20C48BC
:100F780018BF002284ED028A18BFA261082B28BF7F
:100F88000023237012F00AFF84ED070ABDEC028BE0
:100F980010BD00BF3C080024440A00243C0A002479
:100FA800E4070024100800242DE9F04FC4480F245A
:100FB8000A25C44EDFF854A32DED048B8DB000F044
:100FC800A5FAFFF743FF0B208DF8154009248DF88B
:100FD8000D00042002238DF81B508DF81D400121BF
:100FE800B94C0022B94D0DF114088DF8170006AF61
:100FF800B748AB468DF80C3004F158098DF81A3013
:101008008DF81C30B34B8DF814108DF81610026053
:101018009FEDB10A0399B1481A7000F015FF4FF01F
:101028007C539FEDAD8AAE4A20469FEDAE0ADFEDB8
:10103800AE8A62616360E360C4ED048A84ED020AEB
:1010480084ED068A12F0AAFEF0EE407A0121002310
:101058003046B0EE680AC4ED077A237084F8291088
:1010680084F8281012F072FB98F8012018F8023B57
:1010780058468DF81120B0EE480A8DF810300BF163
:10108800100B049900F0E0FEF0EE480A30469FEDA0
:10109800970A12F0CBFB30469FED950A12F01CFC24
:1010A800944B30469FED920A3360303612F03CFC88
:1010B800B7EE000A20462C3404ED090A12F06EFE41
:1010C800FB78F0EE407A50468DF80D30B0EE480AC5
:1010D80017F8023F0AF1100A44ED047A8DF80C3033
:1010E800039900F0B1FE4C4599D1834EFFF740FDBE
:1010F800DFF84092DFF84082804C814F8149704888
:1011080000F064FB6E480DF1200B00F04DFB7E48AB
:1011180000F0B4FE714800F0B1FE6C4800F0AEFE7D
:101128007A4800F0ABFE4FF0000A794800F0A6FEBE
:10113800784800F0A3FE51460AF1010A604800F021
:101148003FFBBAF1040FABEC010AF4D16E4BB6EEDB
:10115800008A714A51469B7A5948A3F1FF03B3FAB2
:1011680083F35B09137000F02BFBAB7AF0EE487A3F
:10117800DFED6A6AFF2B9FED6A7AE0EE267AC7FEFA
:10118800887A87FEC78A4DD0AA7E0023FF2A3B7043
:101198007FD0644A9DED080ADDED099ADDED0A8AE3
:1011A8009DED0B9A1370DFED4C0A464812F03EFB9A
:1011B800B0EE690A434812F08FFBF5EEC08AF1EEF3
:1011C80010FA60D9F7EE007AF4EE678AF1EE10FAB9
:1011D80077FEA88A3B4BB0EE490A1846C3ED008A51
:1011E80012F0A2FBB0EE480AFFF790FEFFF77AFC78
:1011F800FFF75EFD738860214B485BBA638000236C
:10120800CDE90033B9F80220082352BAA280B8F811
:10121800002052BAE280328852BA2280374A02F05D
:1012280013FA6FE7AA7E0123FF2A3B703DD0002303
:101238003C4A9DED080ADDED099ADDED0A8A9DED2F
:101248000B9A1370DFED240A384812F0EFFAB0EE6B
:10125800690A364812F040FBF5EEC08AF1EE10FA42
:1012680014D9F7EE007AF4EE678AF1EE10FA77FEF9
:10127800A88A144BB0EE490A03F13000C3ED0C8A7A
:1012880012F052FBAEE7DFED2A8AA3E7DFED288AEA
:10129800EFE70123234A9DED080ADDED099ADDED0C
:1012A8000A8A9DED0B9A13707DE71E4A9DED080A88
:1012B800DDED099ADDED0A8A9DED0B9A1370C1E701
:1012C8004C08002468070024E40700247C04002458
:1012D800440A00241804002400000000A00400248C
:1012E8003EC3AE370000C84200803B470AD7233CC4
:1012F800CDCCCC3DCDCC4C3F1404002400000030B4
:1013080010040024A90900081C040024B0040024C7
:101318008C040024C0040024C807002400004642AE
:10132800000048423C080024CC0700249807002409
:101338000AD723BC300400249C040024F8B536489E
:101348000024364D4FF60B7635492A4604628462EE
:10135800344FC0E90344C0E96C64C0E96E44C0E995
:101368007264C0E9744412F01FFD2F4B2A462F49BE
:101378001C60204612F018FD2D4B00212A469C8542
:10138800204619605960D960D96119625962196398
:101398005963D963D964196559652649A3F85C402E
:1013A80099601961596199619963196459649964DB
:1013B800214912F0F9FC2A463946204812F0F4FC7B
:1013C8002A461F49204612F0EFFC2A461D492046AE
:1013D80012F0EAFC2A4639461B4812F0E5FC2A4678
:1013E80039461A4812F0E0FC194B1A491A4A1B48A8
:1013F800C3E90064C3E90244194B0460C1E900640D
:10140800C1E90244C2E90064C2E90244C3E90064D4
:10141800C3E90244F8BD00BF4C08002400000024C2
:10142800A10900089D090008CC070024A5090008A7
:1014380068070024000080BF890A00081C040024F3
:10144800810A0008850A00084404002434040024A2
:10145800D0070024FC03002454040024400A00247C
:101468006804002400294ED0274BF0B5D0E90024A9
:10147800481E03F10C0E951C03F1100C4E00AC42F3
:1014880018BF052802EB41058CBF012000206245EA
:1014980038BFAE452CBF01270027384227D0264445
:1014A800644538BFB64522D39D890026D8894FEABE
:1014B800510E65F30F06A44602EB8E0E65F31F4628
:1014C800002560F30F0560F31F45104640F8046BD4
:1014D80070454CF8045BF9D121F00100C90705D526
:1014E800998922F81010DB8924F81030F0BD023AEF
:1014F800023C023D998922F8021FAA42D98924F8A0
:10150800021FF7D1F0BD7047480A00242DE9F043C7
:1015180040F20113964A012706462DED028BDDB0F5
:10152800C0F8EC21ADF81C30002306978DF81E306A
:1015380004F03EF8044603F09FFE06A9054600287D
:1015480040F00081002C00F0FD8030468DF81E70C0
:1015580003F0B4FF072C0DF198080DD0854906F16A
:101568000C00854B854ACDE9261301234146289274
:10157800ADF8A43002F070FA032201234FF00009FD
:101588001CA904A806F11005CDF870904446CDF8C2
:1015980010905CAFCDE9202300220123CDE922235E
:1015A800774B01221D9303F1007303F540731E93DB
:1015B8004FF44173ADF87C300023CDE9242302F0C9
:1015C80057FD01230CA905A80C930E931023CDF801
:1015D80014908DF840306B4BCDF83C900D9301F092
:1015E8009DFF059906F1200000F02AF94FF07E537F
:1015F8003020049A0A9308A90B930323CDE9080322
:10160800284600F031FB284600F06AFB2846B0EE79
:10161800408A00F061FBD0ED007A0DF1580CDFF83C
:1016280084E1F8EE677A6546BEE80F0088EE277A0F
:10163800ACE80F009EE803008CE8030086ED7A7A98
:1016480035F8023B204612340222ADF80C300399DB
:1016580000F042FCA742F3D106F1140704230C2240
:101668004146384606F1300500249FED478A00F0D0
:1016780047FC09E000F068FE96ED7A0A0146284624
:10168800013400F075FB2035072CE1B23846F1D95A
:10169800E1B2013400F058FE00230146F0EE480A9A
:1016A80028461A4696ED7A0A00F030FB0C2CEAD14F
:1016B8003046364B40F82C3F01F06AFA344B012291
:1016C80006F5D870196800F0ADFB324B012206F51B
:1016D800E470196800F0A6FB2F4B06F5F070C6F809
:1016E800E03101F055FA2D4B06F5F270C6F8E431F9
:1016F80001F04EFA0123D6F8EC0111A9CDE9133314
:10170800022310301293002315934BF68033119364
:1017180001F06EF8384600F001FED6F8EC41237D62
:1017280004F11005FBB928461D4D2368D4E90112C0
:10173800009501F0DBF8012323755DB0BDEC028B49
:10174800BDE8F083304603F0B9FE25B106F1080084
:1017580000F078F9FEE6002C7FF4FCAE06F10800F4
:1017680000F070F9F6E6284601F0F6F8DBE700BF6E
:10177800480A00240508050905070506050A06069E
:1017880004020404010A010B6F12033B0207010063
:101798004C4601083C460108020E0100020D0100FA
:1017A8006D140008F045010838B500F1300400F563
:1017B800D8752046203400F011FBAC42F9D138BD71
:1017C80000EB411191ED0F0A704700BF70B5D0F8DA
:1017D800EC4182B00D46237D04F110065BB9236805
:1017E800D4E901127DB13046009501F07FF801235C
:1017F800237502B070BD304601F0AEF82368D4E915
:101808000112002DEFD1014DEDE700BF6D14000866
:101818002C3001F0A7BA00BF07490022074B01F19D
:10182800600010B4302459601A611C601A755DF8A4
:10183800044BC3E90202704708000030480A00243C
:10184800F0B58C2387B00160002203710124FA26C9
:10185800194605AB8DF814200296402200932346C2
:101868000194054601F022FF002840F09B809DF876
:1018780014300DF117074022284603F07F03009724
:10188800CDE901468DF814308DF8173023462979B3
:1018980001F032FF002840F08580042003F0EAFCC4
:1018A80005AB4022284600932346CDE90146297915
:1018B80001F0FCFE002875D19DF8143040220097F5
:1018C800284603F0BF03CDE901468DF814308DF8A2
:1018D80017302346297901F00FFF002862D1042030
:1018E80003F0C8FC0DF11503432228460093234654
:1018F800CDE90146297901F0D9FE002852D10DF130
:1019080016034822284600932346CDE90146297943
:1019180001F0CCFE002845D19DF8153043220097F0
:10192800284643F001038DF815308DF817309DF8DF
:10193800163043F00103CDE901468DF816302346F1
:10194800297901F0D9FE68BB9DF816304822009726
:1019580028468DF817302346CDE90146297901F04C
:10196800CBFEF8B905AB4022284600932346CDE9C3
:101978000146297901F09AFEA0B99DF81420234662
:101988000194284602F0CF04029600974022297954
:101998008DF814408DF8174001F0AEFE003818BFDE
:1019A800012000E0012007B0F0BD00BFF0B5102312
:1019B80087B0234C012200250126002702A92046D2
:1019C8000195CDE902234FF48052CDE904670CF06C
:1019D80005F8642004F092F802A94FF480522046DA
:1019E800CDE9046702261027CDE902670BF0F6FF60
:1019F8000322102302A92046CDE902230023042252
:101A0800CDE904234FF480520BF0E8FF40F2322373
:101A1800042202A9019310232046CDE90223019A4A
:101A2800012305924FF4805204930BF0D7FF40F640
:101A3800060120460BF0F2FF284607B0F0BD00BFB4
:101A4800680A00241C4B00221C494FF0400C30B59A
:101A5800054689B00220596007219A601A6201245C
:101A6800DA620A224FF4006EDC6006922022CDE989
:101A7800000104200821CDE9020103201021CDE94D
:101A8800040108206946C3E904024FF4C072181D16
:101A9800C3E906C24FF48052C3E909E20BF074FFB0
:101AA80038B92846FFF782FF003818BF012009B06F
:101AB80030BD204609B030BD640A002440410052C0
:101AC800614A0021D0B513688EB00A91002B40F00E
:101AD800B9805E4B01214FF683700C2411600221FE
:101AE800D3F8D4200026032742F48052C3F8D42028
:101AF800D3F8D42002F480520092009AD3F8E02060
:101B080042F01002C3F8E020D3F8E02002F01002FF
:101B18000192019AD3F8E02042F04002C3F8E02095
:101B2800D3F8E02002F040020292029AD3F8E020B3
:101B380042F00802C3F8E020D3F8E02002F00802DF
:101B48000392039AD3F8E02042F48072C3F8E020AD
:101B5800D3F8E02002F480720492049AD3F8E020CB
:101B680042F08002C3F8E020D3F8E02002F08002BF
:101B78000592059AD3F8E02042F02002C3F8E0204D
:101B8800D3F8E02002F020020692069AD3F8E0206B
:101B980042F00402C3F8E020D3F8E0300C9403F0DC
:101BA800040307930323079A0B93CDE9080108A9B7
:101BB800274806F00FF948F23712022308A92548EA
:101BC8000C94CDE90823CDE90A6706F003F94CF235
:101BD8000372022308A920480C94CDE90823CDE913
:101BE8000A6706F0F7F840F2FF62022308A91B48CB
:101BF8000C94CDE90823CDE90A6706F0EBF84FF617
:101C08000C72022308A916480C94CDE90823CDE9E3
:101C18000A6706F0DFF84FF63F02022308A91148C9
:101C28000C94CDE90823CDE90A6706F0D3F8202201
:101C3800022308A90A480C94CDE90A67CDE90823CC
:101C480006F0C8F80EB0D0BD600A0024004402585F
:101C58000010025800180258000C025800200258C0
:101C6800001C02580014025830B5184C154685B0AF
:101C7800046004F1080EEC460FC98EE80F00D4ED9D
:101C8800047AF5EEC07A8CE80F00F1EE10FA1ADD4E
:101C9800B7EE006A94ED057A27EE277AC6EE276A32
:101CA80084ED0D7AC4ED0C6A6DB1204640F8185FDA
:101CB80002F0D6FA064903690020064A2162A262A8
:101CC800E36005B030BD012005B030BD9C0A00249A
:101CD800C8200030C800003000680830704700BFD6
:101CE8000068183002F0BEBA10B4074B4FF07E51AE
:101CF80030240022032019619C60D8605DF8044BF1
:101D08005961C3E9062270479C0A0024F6EE007A5E
:101D18009FED166A20EE207A0160F7EE006A80EDEA
:101D2800036A80ED020A27EE277AC6EE877AF4EE78
:101D3800E67AF1EE10FA11DDF0EE667A4FF07E5198
:101D48004FF0000C02760022C0ED017AC0F814C0F2
:101D5800016143768276C0ED070A7047F4EEC67AD1
:101D6800F1EE10FAEAD5F0EE467AE7E70000000057
:101D7800DFED187AB6EE007AF7EE006A9FED166A84
:101D880060EE277A016080ED036A80ED020A67EE53
:101D9800877A86EEA77AB4EEE67AF1EE10FA10DDCD
:101DA800B0EE667A4FF0804C4FF07C514FF4807261
:101DB800012380ED017AC0F810C041610283837667
:101DC8007047B4EEC67AF1EE10FAEBD5B0EE467A6B
:101DD800E8E700BF6F12033B000000000268037EC3
:101DE800128807EE902AFBEEC87A1BB1B7EE007A8C
:101DF80077EE677AD0ED056A90ED047A77EEE67AA9
:101E0800437E67EE877A0BB1F1EE677A90ED030AAD
:101E180090ED017A77EEC07AA7EE270A80ED030AE3
:101E2800704700BF70B584B0002504461646ADF86B
:101E38000C102B462A460399009500F0ADFDA582AB
:101E4800A67504B070BD00BF70B5044682B0C1F37A
:101E58000726CDB2ADF8041003F00AFA4FF48072E9
:101E68004FF001232060A01DA571A280E671A36038
:101E780002B0BDE8704000F08BBE00BF38B5044624
:101E880003F0F6F9002223682271834210D0012260
:101E9800A57AE37A954020602271A01D6DB243B9FE
:101EA80000F052FF40B22843C0B27F28A0720AD087
:101EB80038BD00F049FFB0FA80F040092843C0B2AD
:101EC8007F28A072F4D103F0D3F907EE900AF8EE58
:101ED800677AC4ED037A38BD00B583B04FF0000EC1
:101EE8004FF0030C4274ADF80410BDF8043080F8CC
:101EF80010E0A0F802C0038003B05DF804FB00BF47
:101F08002DE9F04FDFF81C8300258DB0C04C03701D
:101F180008F140034260074601920E4620222946F6
:101F28004046C4F86831C4F86481CDE90255CDE96A
:101F38000455CDE90655CDE90855CDE90A5512F005
:101F48003FFB2022294604F5A170C4F83151C4F89A
:101F58003551C4F83951C4F83D5112F031FB019B99
:101F680084F8485284F830317A68002A6AD02B46BF
:101F780004F59871454606F1100A9E46F01856F881
:101F880003B0E2180EF1010ED0F80CC0D0F804909E
:101F9800D0F8088044F803B0C2F80CC04FF0000C29
:101FA800C2F80490C2F80880008A25F802CB108293
:101FB8001AF8032001F8012F002A70D07A684FF030
:101FC80001001233724584F84802D7D84FF48022B2
:101FD80090489DF8043008214FF000084FF00009A0
:101FE800C4F884310023C4E95B020122C4F87431C7
:101FF80084F88031C4E95E2194F84812C4E9648900
:10200800A9B3C4F89821002284F8813184F8883172
:102018003B78C4E96722002B38D001220020012137
:10202800013B84F8A421C4E96C01082B30D8DFE80F
:1020380013F0BD00C200C700CC00D100D600DB0001
:10204800E100E8009DF804300121C4F87421C4F8C7
:1020580084314FF4802384F880216E4AC4E95B23DD
:1020680008230022C4E95E130023C4E96423012382
:10207800002284F88131002384F888310323C4F8CE
:1020880098313B78C4E96722002BC6D184F8A43183
:10209800614804F06BF9034638B1FFBEFEE77A6881
:1020A800123372453FF66AAF90E702A95A48029385
:1020B80004F0BAFA8246002876D1042240F2FF7171
:1020C8000A90CDE9081294F83021002A00F0F38034
:1020D8004FF006080AEBCA034FEACA0904EB4303A8
:1020E8005B7C072B07D8DFE803F0595C5653504D4B
:1020F8004A04072307930FFA8AF6D14406EBC6066B
:1021080004EB490904EB46077500384600F040FD2A
:1021180099F81030042B00F3AA80022B00F3BD803D
:1021280000F0B98004EB0A03002283F8202114F898
:102138001630002B78D0022B00F08A80012B40F05B
:10214800B2807B78012B00F0B080002B334B18BF96
:10215800002305A93048CDE9053803F033FD0028F0
:1021680040F0AC800AF1010A94F830315FFA8AFA3B
:10217800534540F2A0802A4B53F82A80AAE7062349
:102188000793B8E705230793B5E704230793B2E756
:1021980003230793AFE702230793ACE700230793D2
:1021A800A9E701230793A6E7FFBEFEE70322402322
:1021B800C4E96A236CE707226023C4E96A2367E756
:1021C8000F228023C4E96A2362E71F22A023C4E9FF
:1021D8006A235DE73F22C023C4E96A2358E77F22C8
:1021E800E023C4E96A2353E7FF224FF48073C4E96C
:1021F8006A234DE740F2FF124FF49073C4E96A2353
:1022080046E740F2FF324FF4A073C4E96A233FE780
:10221800D80A002400200240440C00240002B02503
:1022280050460108C84000307B78062B37D0072B72
:102238003DD0022B4AD0032B4AD0002B4CD0012B87
:1022480048D0042B4AD0052B254B18BF002380E724
:102258007B78042B25D0052B2BD08BB3012B31D0C9
:10226800022B31D0032B1F4B18BF002371E7032328
:10227800043504EB0A0B4FF0000925448BF8203194
:10228800284609F1010900F083FC9BF82031043548
:102298004B45F5DC4BE70123EAE70223E8E7124B5D
:1022A80057E7124B55E7002353E7114B51E7114B02
:1022B8004FE7114B4DE70DB0BDE8F08FFFBEFEE7CD
:1022C8000E4B46E70E4B44E70E4B42E70E4B40E7FA
:1022D8000E4B3EE70E4B3CE70E4B3AE70E4B38E70A
:1022E8000000B84F002090360800900C1000C01075
:1022F8002000F0148000501D000180210004002AF5
:102308000008302E001060320040C03A0080F03ED5
:1023180000005247000021430000844B38B5094CA7
:1023280040F2FF724FF0011104F5B675284604F02B
:1023380029F994F83021D4F864112846BDE83840CA
:1023480003F094BED80A0024034B0F29D3F8640184
:1023580098BF00EB41007047D80A0024214B02685F
:102368009A4200D07047204A00232048D2F8D8105B
:1023780030B51F4C41F0200183B0C4F8D0010920CA
:1023880004F5E875C4E975034FF48060C2F8D81005
:10239800D2F8D8204FF40061C4E9773094F84802A5
:1023A80002F02002C4F8E4114FF40051984201925F
:1023B8002846C4F8E811C4E97C33019B14BF002304
:1023C8004FF48073C4F8EC3104F02CFD08B1FFBE63
:1023D800FEE704F5B673C4F8B851C4F8083203B080
:1023E80030BD00BF002002400044025840000240B7
:1023F800D80A0024014805F09BB900BFA80C0024A6
:1024080002682DE9F84F4B4B9A4201D0BDE8F88F8E
:10241800494D95F84832002BF8D095F83031002B0B
:1024280077D0002405F10C0905F5A17605F5987714
:10243800A04613E003F0010117F811BCA9F1080048
:1024480000F090FCBBF1010F25D895F8303101342C
:1024580009F112090236A2B293422BD917F8012FBB
:10246800002AF4D0D5F864310021327833F814000A
:10247800D5F8683103EB041323F8120033880133CD
:102488009BB233805FFA83FA3A789A42D2D88A4666
:10249800A6F80080D0E7CAF34001A9F1040000F0D3
:1024A80061FCBBF1020FCAF38001CED0484600F0B0
:1024B80059FCCAE7002395F84802204909229842A6
:1024C800C5F8D8314FF48060C5F8D011C5F8D421CB
:1024D8004FF400614FF40052C5F8DC3108BF4FF4E7
:1024E8008073C5F8E821C5E9780100221448C5E9D8
:1024F8007B32C5F8F42104F095FC08B1FFBEFEE775
:1025080095F83021D5F864110E48BDE8F84F03F06E
:10251800ADBD0A4909224FF48060C5F8D831C5E934
:1025280074124FF400614FF40052C5E97730C5E9E1
:102538007912DAE700200240D80A0024400002405D
:10254800A80C0024440C0024704700BF4F4B0268BD
:102558009A4200D070474E4BD3F8E81030B541F09E
:1025680000514C4C85B0D4F84821C3F8E810D3F892
:10257800E81001F0005101910199D3F8E01041F001
:102588000101C3F8E010D3F8E03003F0010302932F
:10259800029B32F002033DD0013A012A6BD9D4F8EC
:1025A8004C31012B0AD000223620114604F0B0F835
:1025B800362005B0BDE8304004F0E8B8D4F848311A
:1025C80033F0020234D0013B012BECD844224023E3
:1025D8003149324DC4F88C1000212846C4F8B01097
:1025E800C4E9242300224FF48063C4E926234FF46E
:1025F80000624FF40053C4E928234FF480724FF46B
:102608008033C4E92A2304F00DFC80B9E560C4F8DE
:10261800C440C8E74FF48062032303A8ADF80C2038
:102628008DF80E3000F0B4FAD4F84821B4E7FEE78C
:102638001B4BA2634322636140231A4DC4E906235E
:1026480000224FF480632846C4E908234FF400624F
:102658004FF40053C4E90A234FF480724FF48033D7
:10266800C4E90C2304F0DEFB20B9D4F84831A56096
:10267800E464A8E7FEE74FF4A062032303A8ADF8DB
:102688000C208DF80E3000F083FA88E700740040C3
:1026980000440258280D002428040240B40D0024E8
:1026A800100402403C0D0024014805F041B800BF69
:1026B8003C0D0024014805F03BB800BFB40D0024D0
:1026C80010B5054C204604F0DDF904F58270BDE82C
:1026D80010400CF0D1BD00BF280D0024164BD3F8D4
:1026E8004821D3F85811022A4FEA510130B583B076
:1026F8000CD088B2D3F85C21D3F8644102EB4003D4
:1027080000930CB16846A04703B030BDD3F86021F0
:10271800002AF9D088B2D3F85C41D3F8645104EBAD
:10272800400402EB4002CDE90042002DECD068469F
:10273800A84703B030BD00BF280D0024134BD3F8C1
:102748004821022A10B582B00CD0D3F85C11D3F816
:102758006421009122B1D3F858116846490890477E
:1027680002B010BDD3F86021002AF9D0D3F85C116B
:10277800D3F86441CDE90012002CF1D0D3F85811F8
:1027880068464908A04702B010BD00BF280D0024C4
:10279800094BD3F84821022A0DD000B5D3E95812C5
:1027A80083B0019122B1D3F8581101A84908904784
:1027B80003B05DF804FB7047280D00240B4BD3F8D9
:1027C8004821022A10D0D3F8581110B5D3E958245B
:1027D800C1F34F0382B0490802EB430301930CB1E4
:1027E80001A8A04702B010BD704700BF280D002403
:1027F80030B58C463A4C3B4D8DB0046004F5A27E52
:10280800BCE80F00AEE80F00DCF800302046256079
:10281800CEF8003004F048F80023D4F84C51039364
:10282800C5B11622012D049217D00022D4F85411F4
:10283800D4F848319142CDE9062218BF0222059208
:1028480033F0020235D0013B012B3CD90025284644
:102858000DB030BD02230493E7E7234A0093C4F880
:102868000C31C4F81431C4F80421C4F81C31CDE982
:10287800013302F09BFED4F844314BF68032C4F8A1
:102888000851002B08BF1346B0FBF3F304F5827020
:10289800C4F810310CF05AFB0028D8D1202302903C
:1028A800694604F5827000930CF09EFD0028BCD0A8
:1028B800CDE703A90A4804F019F978B9D4F84831E2
:1028C800013B012BC2D8102203A9054804F00EF9D8
:1028D800051E18BF012528460DB030BD0125B6E7F5
:1028E800280D0024007400400010004070B50468F2
:1028F8001D4682B01046D4F84C31012B03D0D4F8D1
:102908004831022B24D1D4F85031069A002BC4F850
:102918005C11C4F864212B460CBF08260026C4F8B5
:1029280060010A46C4F8585100212046009603F079
:10293800D1FFD4F860212B4610212046009603F0E1
:10294800C9FF04F582700CF0A1FB002002B070BD35
:10295800012002B070BD00BF10B50468D4F84C3136
:10296800012B09D1D4F8483133F0020106D0013BDC
:10297800012B0BD9002010BD012010BD204604F00A
:1029880035F8D4F84831013B012BF3D81021204603
:1029980004F02CF8002010BD10B592B0ADF804106A
:1029A8000180C9B2149C0B29C460C0E901233FD03F
:1029B80090F801C0BCF10F0F3AD8022A3FD0032A81
:1029C80002D0012A00D000220E92012B02D0022B45
:1029D80018BF0023022C0F932CD0032C2AD0012CD3
:1029E80028D000230A29109327D85C4A02EB8122B9
:1029F80002610A2914D8DFE801F0A39587796B5D95
:102A08004F4133250600564BD3F8E01041F480615E
:102A1800C3F8E010D3F8E03003F480630C930C9B08
:102A280001230DA9104603FA0CF30D9305F0D2F912
:102A380012B010BD0A291094D7D90022D8E7112264
:102A48000E92C2E7464BD3F8E01041F40071C3F888
:102A5800E010D3F8E03003F400730B930B9BDFE72F
:102A68003F4BD3F8E01041F48071C3F8E010D3F87D
:102A7800E03003F480730A930A9BD1E7384BD3F80C
:102A8800E01041F08001C3F8E010D3F8E03003F023
:102A980080030993099BC3E7314BD3F8E01041F059
:102AA8004001C3F8E010D3F8E03003F04003089386
:102AB800089BB5E72A4BD3F8E01041F02001C3F892
:102AC800E010D3F8E03003F020030793079BA7E753
:102AD800234BD3F8E01041F01001C3F8E010D3F80D
:102AE800E03003F010030693069B99E71C4BD3F8DC
:102AF800E01041F00801C3F8E010D3F8E03003F02B
:102B080008030593059B8BE7154BD3F8E01041F0BC
:102B18000401C3F8E010D3F8E03003F00403049391
:102B2800049B7DE70E4BD3F8E01041F00201C3F897
:102B3800E010D3F8E03003F002030393039B6FE740
:102B4800074BD3F8E01041F00101C3F8E010D3F8C7
:102B5800E03003F001030293029B61E70000025892
:102B68000044025808B5012143780069994089B2A8
:102B780005F038FB003818BF012008BD01230A46BC
:102B88004178006903FA01F189B205F031BB00BF51
:102B98008378022B30B504468FB037D0032B33D05F
:102BA800012B31D000230A93E378012B2AD0022B82
:102BB80028D000230B93002320460C9302F07CFEC0
:102BC8000546204602F080FE23780990082B13D88A
:102BD800DFE803F01F3245586B7E91A40500594B7E
:102BE800D3F8E02042F48072C3F8E020D3F8E03054
:102BF80003F480730893089B09A9284605F0EAF8AE
:102C08000FB030BD0B93D6E70A93CDE711230A9393
:102C1800CAE74C4B09A92846D3F8E02042F0010244
:102C2800C3F8E020D3F8E03003F001030093009BE1
:102C380005F0D0F80FB030BD424B09A92846D3F8AB
:102C4800E02042F00202C3F8E020D3F8E03003F0BD
:102C580002030193019B05F0BDF80FB030BD394B5D
:102C680009A92846D3F8E02042F00402C3F8E0207E
:102C7800D3F8E03003F004030293029B05F0AAF8AE
:102C88000FB030BD2F4B09A92846D3F8E02042F0F9
:102C98000802C3F8E020D3F8E03003F008030393F8
:102CA800039B05F097F80FB030BD264B09A92846BD
:102CB800D3F8E02042F01002C3F8E020D3F8E03067
:102CC80003F010030493049B05F084F80FB030BDA3
:102CD8001C4B09A92846D3F8E02042F02002C3F88B
:102CE800E020D3F8E03003F020030593059B05F0BE
:102CF80071F80FB030BD134B09A92846D3F8E0206E
:102D080042F04002C3F8E020D3F8E03003F040037B
:102D18000693069B05F05EF80FB030BD094B09A974
:102D28002846D3F8E02042F08002C3F8E020D3F828
:102D3800E03003F080030793079B05F04BF80FB0D2
:102D480030BD00BF0044025838B5054602F0B4FD56
:102D58000446284602F0B8FD01462046BDE8384042
:102D680005F040BA70B506460D4602F0A5FD0446CA
:102D7800304602F0A9FD2A1E0146204618BF01224E
:102D8800BDE8704005F034BA2DE9F84F04460E4608
:102D98001746984600F18C05284607F0E7FB2028DF
:102DA800FAD120682E4B0128636106D0022843D04F
:102DB80000283ED00120BDE8F88F2423A3614023DA
:102DC800002004F11409E3614FF480632062A063DA
:102DD8006362C4E90A00C4E90C00C4E9100048466B
:102DE80004F020F808B1FFBEFEE7C4F8C490E5641B
:102DF800EFF3108A72B6DFF8709094F900300A9AEF
:102E0800DFF868B089F80030CBF80020E3680B9A47
:102E1800144C22609BB9710043463A46284689B251
:102E280005F0C6FE90B9BAF1000FC4D162B6BDE88C
:102E3800F88F2223A361C2E74A23A361BFE7424672
:102E48003946284606F026F80028ECD0FF23012052
:102E580089F800300023CBF800302360E3E700BF97
:102E6800A0000240980E0024940E0024900E002426
:102E78002DE9F84F04460E461746984600F18C0592
:102E8800284607F073FB2028FAD120682D4B01282B
:102E9800636106D0022842D000283DD00120BDE859
:102EA800F88F2323A36100204FF4806304F11409F1
:102EB800A0636362C4E90700C4E90A00C4E90C001E
:102EC800C4E91000484603F0ADFF08B1FFBEFEE7B5
:102ED800C4F8C890E564EFF3108A72B6DFF86C9016
:102EE80094F900300A9ADFF868B089F80030CBF816
:102EF8000020E3680B9A144C22609BB9710043468A
:102F08003A46284689B205F00DFF90B9BAF1000F8C
:102F1800C5D162B6BDE8F88F2123A361C3E7492371
:102F2800A361C0E742463946284606F01FF8002844
:102F3800ECD0FF23012089F800300023CBF80030C3
:102F48002360E3E7A0000240980E0024940E0024BA
:102F5800900E00240023122270B586B0CDE902231A
:102F680004930368032B01D804230593061D841DCD
:102F7800304602F0A1FC0546304602F0A5FC0346A7
:102F880001A92846019304F025FF204602F094FC8D
:102F9800034620461C4602F097FC01A9034620463A
:102FA800019304F017FF06B070BD00BF634A0368C1
:102FB800934210B58CB028D0614A934258D0614AE8
:102FC800934200F09480604A934201D00CB010BD47
:102FD8005E4C5F48D4F8E03043F00203C4F8E030B8
:102FE800D4F8E03003F002030A930A9BFFF7B2FF1C
:102FF800D4F8F43043F08003C4F8F430D4F8F43053
:1030080003F080030B930B9BE0E7504C5148D4F836
:10301800E03043F00203C4F8E030D4F8E03003F0C5
:1030280002030193019BFFF795FFD4F8E8300022D3
:103038001F2043F400131146C4F8E830D4F8E830F0
:1030480003F400130293029BD4F8D83043F0010331
:10305800C4F8D830D4F8D83003F001030393039BA5
:1030680003F056FB1F200CB0BDE8104003F08EBBE8
:10307800364C3948D4F8E03043F08003C4F8E030E7
:10308800D4F8E03003F080030493049BD4F8E030D4
:1030980043F00203C4F8E030D4F8E03003F0020350
:1030A8000593059BFFF756FFD4F8E830002221204E
:1030B80043F480031146C4F8E830D4F8E83003F448
:1030C80080030693069BD4F8D83043F00103C4F874
:1030D800D830D4F8D83003F001030793079B03F0E6
:1030E80017FB21200CB0BDE8104003F04FBB1B4874
:1030F800FFF730FF154B00224820D3F8E84011466F
:1031080044F40004C3F8E840D3F8E84004F40004A9
:103118000894089CD3F8D84044F00104C3F8D84078
:10312800D3F8D83003F001030993099B03F0F0FAB0
:1031380048200CB0BDE8104003F028BB0054004004
:1031480000580040005C0040001C00580044025831
:10315800241100249C0E0024740F00244C10002419
:103168002DE9F0431A4B87B000254FF010099E4611
:10317800EC46184BFF22E04667461A700EF1180617
:103188000EF13004CDE90055CDE90255ADF80090B7
:10319800BCE80F00CDE90455AEE80F009CE8030039
:1031A8000095ADF800908EE80300B8E80F000FC650
:1031B8009CE803000095ADF8009086E803000FCF67
:1031C8000FC49CE8030084E8030007B0BDE8F0835F
:1031D80004000024940E002410B5EFF3108472B696
:1031E800084B1A78120602D504B962B610BD1B78CE
:1031F800D82205485BB202FB0300143004F098FAA9
:10320800F2E700BF940E00249C0E0024014806F04B
:1032180093B900BF280F0024014806F08DB900BFFC
:1032280000100024014806F087B900BFD810002418
:103238002DE9F04182B0EFF3108772B61C4AFF21E6
:103248001C4C1368217023B1002111601A4A1068C0
:10325800984723781B0617D5DFF864800025174E9A
:10326800444662685AB16369304693B92369019349
:10327800E368009323892188FFF786FD90B1013523
:103288001834D836032DECD107B962B602B0BDE8C0
:10329800F081D4E90331CDE9003123892188FFF792
:1032A800E7FDEBE705EB450508EBC5056860EBE7CF
:1032B800900E0024940E0024980E00249C0E0024E6
:1032C800040000242DE9F04182B0EFF3108772B6B4
:1032D8001C4AFF211C4C1368217023B10021116086
:1032E8001A4A1068984723781B0617D5DFF86480B8
:1032F8000025174E444662685AB16369304693B94F
:1033080023690193E368009323892188FFF73CFD33
:1033180090B101351834D836032DECD107B962B60F
:1033280002B0BDE8F081D4E90331CDE90031238949
:103338002188FFF79DFDEBE705EB450508EBC50583
:103348006860EBE7900E0024940E0024980E002489
:103358009C0E0024040000242DE9F04182B0EFF314
:10336800108772B61C4AFF211C4C1368217023B1C8
:10337800002111601A4A1068984723781B0617D550
:10338800DFF864800025174E444662685AB16369C5
:10339800304693B923690193E36800932389218810
:1033A800FFF7F2FC90B101351834D836032DECD173
:1033B80007B962B602B0BDE8F081D4E90331CDE9BE
:1033C800003123892188FFF753FDEBE705EB45051D
:1033D80008EBC5056860EBE7900E0024940E002406
:1033E800980E00249C0E0024040000242DE9F041CE
:1033F80082B0EFF3108772B61C4AFF211C4C136889
:10340800217023B1002111601A4A10689847237867
:103418001B0617D5DFF864800025174E44466268FE
:103428005AB16369304693B923690193E3680093FD
:1034380023892188FFF7A8FC90B101351834D836C4
:10344800032DECD107B962B602B0BDE8F081D4E92A
:103458000331CDE9003123892188FFF709FDEBE726
:1034680005EB450508EBC5056860EBE7900E002401
:10347800940E0024980E00249C0E002404000024BE
:103488002DE9F04182B0EFF3108772B605F03AFBF0
:103498001D4A1E4CFF21136821702BB100211160B9
:1034A80001211B4A1068984723781B0617D5DFF8B7
:1034B80068800025174E444662685AB163693046F1
:1034C80093B923690193E368009323892188FFF75F
:1034D8005BFC90B101351834D836032DECD107B90F
:1034E80062B602B0BDE8F081D4E90331CDE900311C
:1034F80023892188FFF7BCFCEBE705EB450508EBC2
:10350800C5056860EBE700BF900E0024940E002408
:10351800980E00249C0E0024040000242DE9F0439A
:103528000F68D8243F4D85B007FB04F4032F05EB43
:103538000403036040DCCB680E46012B3CD84DD019
:103548004FF0D808B646DFF8FC9008FB0758BEE8ED
:103558000F00C446ACE80F00DEF800300DF1100E85
:10356800CCF80030D8F808C099E80F000EE90F0031
:103578000EEB8703BCF1010F53F8103CC8F88C30F0
:1035880031D0BCF1020F42D0BCF1000F35D0317CF4
:103598008C34D823002201202C4403FB0753490014
:1035A800C3E92602C3F894102046C3E92822C3E9D8
:1035B8002A2205F0A7FA18B1012005B0BDE8F0836A
:1035C8000146204606F0D6FF0028F5D101462046E0
:1035D80006F0FAFF003818BF0120EEE70B7C103B1D
:1035E800672BADD9E8E701F0DFFF0F4B98420CBF1E
:1035F8000E4B0F4BC8F89030C9E701F0D5FF0A4BC6
:1036080098420CBF0B4B0C4BC8F89030BFE701F049
:10361800CBFF054B98420CBF084B094BC8F89030BC
:10362800B5E700BF9C0E0024000E27072D0FB03011
:103638003211D0205F4390608A62E030200BA010E6
:103648001A0980100846010800682DE9F04104684D
:10365800032CDDE9067821D0124D2D782D0617D4DC
:103668008E469C46EFF3108372B60F4D04EB44046C
:10367800002025F8341005EBC4046260A4F808C0E3
:103688006061C4E903780BB962B61846BDE8F081F9
:10369800CDE90678BDE8F041FFF776BB0120BDE82B
:1036A800F08100BF940E0024040000242DE9F041AD
:1036B800046884B01E46E368BDF82C80C3B90D4683
:1036C80017468C34204606F051FF2028FAD12046B0
:1036D8000C9C33463A462946CDE901840A9C00945D
:1036E80005F0DCFD003818BF012004B0BDE8F0810A
:1036F800012004B0BDE8F0812DE9F041046884B0F0
:103708001E46E368BDF82C80C3B90D4617468C34B5
:10371800204606F02BFF2028FAD120460C9C334681
:103728003A462946CDE901840A9C009405F08CFCB0
:10373800003818BF012004B0BDE8F081012004B0B2
:10374800BDE8F081044B10221A7483F8E82083F84E
:10375800C02183F8982270479C0E002430B50023BE
:1037680095B04FF48071062204460B93069213938A
:10377800CDE90C13CDE90E33CDE9113301F018FF73
:1037880007282BD004F1100541F2883206A92846F3
:1037980007F02CFD28B10123184684F85C3015B0D9
:1037A80030BD0222022306A92846CDE900231022B3
:1037B8000123CDE9022300224FF48003CDE904233D
:1037C80005224FF0807306926A460F9341F28833C0
:1037D80007F078FE0028DED115B030BD03230120A4
:1037E80084F85C3015B030BD70B50023A4B04FF03C
:1037F80080724FF480750446ADF806300D93CDE91C
:1038080010320122CDE90E53CDE91223CDE914334C
:10381800002943D0F02300F1100508AEADF80630BA
:10382800C02341F2883231462846089307F0DEFC6F
:1038380028B10123184684F85C3024B070BD41F2E9
:1038480088320DF10601284607F03AFD03460028A4
:10385800EFD105224FF480711E93284616924FF03F
:1038680080721B9321931F9202AA9FED1F7BCDE9C3
:103878001C13CDE922338DED027B9FED1D7B41F2B8
:10388800883316A98DED047B9FED1B7B8DED067BA0
:1038980007F018FE0028CCD124B070BD00F1100547
:1038A80008AE612341F2883231462846089307F072
:1038B8009DFC0028BDD141F288320DF10601284651
:1038C80007F07CFD0028B4D1BDF80630204623F06F
:1038D800780343F04003ADF80630FFF73FFF0028B8
:1038E8009ED0A6E7AFF300800000000001000000B2
:1038F800100000000100000000000000000040006F
:103908002DE9F04F00234FF4807501264FF08078A1
:1039180004462DED028BABB08DF80730139321933D
:10392800299314950E96CDF85C80CDE91533CDE931
:103938001863CDE91A33CDE92253CDE92433CDE913
:10394800273306231C9301F033FE072808D004F11F
:10395800100741F288321CA9384607F047FC40B1ED
:103968000123184684F85C302BB0BDEC028BBDE80F
:10397800F08F4FF0020A4FF0020B4FF0050941F2A9
:10398800883308AA1CA93846CDF89480CDF87090E1
:103998009FED2D8BCDE908AB4FF0000A4FF4800B5B
:1039A8008DED0A8BCDE90CAB07F08CFD0028D7D143
:1039B80041F2883238460EA907F018FC0028CFD10A
:1039C800402341F288320DF1070138468DF807305F
:1039D80007F076FC0028C3D141F288330EA902AA69
:1039E8003846CDF83890CDF85C809FED197B8DED89
:1039F800048BCDE906AB8DED027B07F063FD034632
:103A08000028ADD1CDF870904FF00109CDF8948021
:103A18004FF00008219308AA29931CA9384622953B
:103A2800CDE92333CDE9273341F288338DED0A8B75
:103A3800CDE90CABCDE9088907F044FD002893D007
:103A4800304684F85C608FE7100000000100000039
:103A580040000000400000002DE9F043624CA3B094
:103A68000D46046001F0A4FD072800F0A98028682D
:103A780023466968AA6807C31E46AB8926F8043B33
:103A88003046257B677B07F093FBE0B9574B012D48
:103A98004FF00108E061236114BF4FF480134FF425
:103AA8000003C4E9058893FAA3F3B3FA83F34FF448
:103AB8008079013BC4F82490C4E90B0030462362A6
:103AC80007F00AFB38B10122134684F85C20184637
:103AD80023B0BDE8F08366230B90139041F288323F
:103AE80006A90693CDE90C90CDE90E00CDE91100A9
:103AF800304607F07BFB0028E5D1992341F2883254
:103B080006A93046069307F071FB0028DBD1052390
:103B18001C9019906A4614934FF08073219014A951
:103B28001D9341F288339FED2A7BCDE91A90CDE9A8
:103B38001F008DED007B9FED287B30468DED027BCD
:103B48009FED277B8DED047B07F0BCFC0028BAD1E4
:103B580029462046FFF748FE0028B4D12046FFF743
:103B6800CFFE03460028AED1002FB0D118933046BF
:103B78000027002606AA14A9CDF86890CDE91F33BE
:103B8800EB2314934FF440631B934FF400531793A4
:103B98004FF440431C93A0231693062319934FF028
:103BA800805321934FF04073CDE906671D9307F0CA
:103BB80001FD034600288AD0434684F85C8086E7E6
:103BC80001230322184684F85C2023B0BDE8F08363
:103BD80000000000010000001000000001000000CB
:103BE8000000000000004000FC11002400500052BA
:103BF8002DE9F04F8FB0414B0024026800AF9A4284
:103C08007C63C7E90944C7E90B4403D03C37BD4688
:103C1800BDE8F08F3A4B40F609213A48EB46D3F815
:103C2800D42007F11C0607F1220A4FF0020942F4DA
:103C380080424FF00308C3F8D420D3F8D42002F40C
:103C48008042BA60BA68D3F8E02042F04002C3F874
:103C5800E020D3F8E02002F04002FA60FA68D3F8D6
:103C6800E02042F02002C3F8E020D3F8E02002F080
:103C780020023A613A69D3F8E02042F01002C3F812
:103C8800E020D3F8E02002F010027A617A69D3F8D4
:103C9800E02042F00202C3F8E020D3F8E030F861F7
:103CA80003F002033984BB61174B7B60BB697B68F7
:103CB80053F8040F7B6001F0FFFD7B680546186828
:103CC80001F002FE16F8013B786207F1240128464C
:103CD800C7F830807B63C7E90A9404F07BF856453F
:103CE800E5D100225C20114602F012FD5C2002F0B2
:103CF8004DFD3C37DD46BD46BDE8F08F0050005213
:103D0800004402580A0A090958120024114B026893
:103D18009A4200D07047104A70B5D2F8D4300F4C90
:103D280023F4804304F11806C2F8D43054F8040F81
:103D380001F0C2FD0546206801F0C6FD014628468F
:103D480004F088F9B442F1D15C20BDE8704002F07B
:103D58002BBD00BF005000520044025858120024E6
:103D6800014807F0B3BC00BF0C120024084B1A1D11
:103D7800981D03F1080110B49C1C9A6603F10A020D
:103D8800C3E91834C3E91B015DF8044B5A6770474F
:103D9800FC11002438B5036871B9026A00F12805DE
:103DA80000F5AC74012A0CBF002140218BBB1D4BD0
:103DB8005722C0F858310DE0426A00F1C00500F5FD
:103DC800E874012A0CBF00214021EBB1164B5A229E
:103DD800C0F8D03100232046C4E901214FF48052B5
:103DE8004FF48061636262614FF48042C4E9033139
:103DF8004FF48073C4E906234FF40033236203F0C1
:103E080011F858B1FFBEFEE7084B5822C0F8D03170
:103E1800E0E7074B5922C0F85831DBE7C5E92044F1
:103E2800A56338BD1000024070000240280002401F
:103E3800580002402DE9F043821D05468BB0031D52
:103E480005F10A010830CDE9052305F10C02AB693B
:103E5800CDE907010992002B3DD0EB69B3FA83F84D
:103E68004FEA58180123022205AE0AAF4FF006099F
:103E78000393CDE9012356F8044B2B79227893421A
:103E880016D02B68F3B1012B02D1F2B10A230493A7
:103E9800204601F019FD03462046009301F00CFD71
:103EA800694603F097FFBE42E5D10BB0BDE8F08349
:103EB800697963789942E4D1B8F1000FF3D02B689F
:103EC800002BE0D1CDF81090E2E76378022B14BF05
:103ED8000A230823DBE74FF00108C3E7534A0368C6
:103EE800934230B505468BB055D02032934252D01C
:103EF8004F4A934204D02032934201D00BB030BDD8
:103F08004C4C4D48D4F8E03043F00103C4F8E0309D
:103F1800D4F8E03003F001030593059BD4F8E030B2
:103F280043F00803C4F8E030D4F8E03003F00803A5
:103F38000693069BD4F8E03043F04003C4F8E03021
:103F4800D4F8E03003F040030793079BD4F8F0302F
:103F580043F40003C4F8F030D4F8F03003F400035D
:103F68000893089BFFF766FFD4F8D830296843F018
:103F780001032F4A3048C4F8D830891AD4F8D83009
:103F880018BF012103F001030993099B0BB0BDE899
:103F98003040FFF7FFBE274C2848D4F8E03043F004
:103FA8000103C4F8E030D4F8E03003F001030093D3
:103FB800009BD4F8E03043F01003C4F8E030D4F8A4
:103FC800E03003F010030193019BD4F8E03043F094
:103FD8004003C4F8E030D4F8E03003F04003029323
:103FE800029BD4F8F03043F48003C4F8F030D4F8DE
:103FF800F03003F480030393039BFFF71BFFD4F80F
:10400800D830296843F00103084A0C48C4F8D8306E
:10401800891AD4F8D83018BF012103F0010304939A
:10402800049B0BB0BDE83040FFF7B4BE0458014014
:10403800045C014000440258D01400247412002487
:10404800014803F075BB00BFCC130024014803F0FE
:104058006FBB00BF44140024014803F069BB00BFD4
:1040680028160024014803F063BB00BFA0160024F3
:104078002DE9F04F0C684FF41776754F87B004FBA5
:1040880006F6012C07EB060AC0F800A000F3A08092
:104098000D468E464FF00008D44669A3D3E90023A5
:1040A80069A1D1E90001CDE9022306ABCAF8508223
:1040B80003EB8403CDE9040153F810BC53F8083C22
:1040C800CAE992880193BEE80F00ACE80F00BEE889
:1040D8000F00ACE80F00019B9EE80300CAF828B067
:1040E800CAF8C0308CE803002B69042B0CD8DFE831
:1040F80003F0737D879103004FF41773554A03FB50
:1041080004739A64C3F8E020AA692B6A002A43D092
:10411800002B4FF4177308BF022203FB047318BF68
:104128000322DA6201221A63EA696B6A002A40D123
:10413800191E4FF4177318BF012103FB0473C3E959
:1041480031126B69022B05D8434A12F80380434A9F
:1041580052F823904FF4177306F128004246494657
:1041680003FB04740023384463646363E365C4F8A1
:10417800DC30C4F8CC30C4F8F430C4E90F33C4E9F7
:104188001533C4E93533C4E93B33022309F040FB56
:10419800002849D0FFBEFEE7191E4FF4177318BF59
:1041A800012103FB0473C3E90B12EA696B6A002A55
:1041B800BED0002B4FF4177308BF022203FB047311
:1041C80018BF0322C3F8C4200122C3F8C820B8E7E7
:1041D800012007B0BDE8F08F4FF417734FF4FA527F
:1041E80003FB04739A64C3F8E0208DE74FF4177358
:1041F8004FF47A5203FB04739A64C3F8E02083E710
:104208004FF417734FF4FA4203FB04739A64C3F82C
:10421800E02079E74FF417734BF6803203FB047301
:104228009A64C3F8E0206FE706F1C0000223424613
:104238004946384409F0ECFA0028CAD0FFBEFEE728
:1042480004580140045C014024580140245C0140AA
:104258007412002400770100904601089446010872
:104268000068704703681B69042B05D8044A02EBF1
:10427800830393ED000A70479FED020A704700BF61
:10428800A046010800803B4770B5002304464FF460
:10429800806204214FF440353448C4F83821C4F80A
:1042A800D410C4F83431C4F84C113149C4F8B00002
:1042B800C4F82811C4E92F32C4E93133C4E93335CD
:1042C800C4E93733C4E94F33C4E95135C4E9553338
:1042D800A2680323C4F8D830C4F85031042A0AD895
:1042E800DFE802F01F262D34030055225623C4F8B8
:1042F800B420C4F82C310022402304F1B005C4F8DE
:10430800B8202846C4F8303102F08CFD08B1FFBE51
:10431800FEE704F59476304602F084FDE8B1FFBE6E
:10432800FEE725222623C4F8B420C4F82C31E2E79E
:1043380027222823C4F8B420C4F82C31DBE73D2217
:104348003E23C4F8B420C4F82C31D4E753225423B4
:10435800C4F8B420C4F82C31CDE704F12803C4E92B
:104368002865C4F8E830C4F8603170BD40040240E4
:10437800580402402DE9F04F814683B00E46174697
:104388001D4600F1280420460AF0DCFD012882467B
:10439800F9D14846FFF778FF8046002835D1EFF37A
:1043A8001083019372B6DFF888B00C9B99F9082046
:1043B800DFF880A0DFF88090CBF800300D9B89F8FB
:1043C8000020CAF800300DB11846A847BAB23146E5
:1043D80020460AF02DF930B9019B03B962B6404670
:1043E80003B0BDE8F08F0023CBF80030CAF80030E6
:1043F800FF2389F800300C9B8BB101210D9888466A
:104408009847019B002BEAD1E8E70C9B53B1D046B3
:104418000D9851469847404603B0BDE8F08F4FF0DD
:104428000108D9E7D046404603B0BDE8F08F00BF89
:104438004C21002454210024502100242DE9F04F60
:10444800814683B00E4617461D4600F128042046D3
:104458000AF078FD01288246F9D14846FFF714FF93
:104468008046002835D1EFF31083019372B6DFF848
:1044780088B00C9B99F90820DFF880A0DFF88090BD
:10448800CBF800300D9B89F80020CAF800300DB138
:104498001846A847BAB2314620460AF08DFA30B914
:1044A800019B03B962B6404603B0BDE8F08F002314
:1044B800CBF80030CAF80030FF2389F800300C9B95
:1044C8008BB101210D9888469847019B002BEAD1B2
:1044D800E8E70C9B53B1D0460D98514698474046A3
:1044E80003B0BDE8F08F4FF00108D9E7D046404649
:1044F80003B0BDE8F08F00BF4C21002454210024F4
:10450800502100242DE9F04F814683B00F4616460E
:10451800984600F1280420460AF014FD0128FAD133
:1045280082464846FFF7B0FE0546002838D1EFF32B
:104538001083019372B699F90830DFF88890DFF894
:1045480088B089F800300D9BDFF880A0CBF80030E8
:104558000E9BCAF800300C9B0BB10E9898471FFAB7
:1045680088F33A46314620460AF01AF930B9019BD9
:1045780003B962B6284603B0BDE8F08F0023CBF834
:104588000030CAF80030FF2389F800300D9B8BB14A
:1045980001210E980D469847019B002BEAD1E8E7C8
:1045A8000D9B4BB155460E9851469847284603B087
:1045B800BDE8F08F0125DAE75546284603B0BDE887
:1045C800F08F00BF502100244C21002454210024E6
:1045D8002DE9F043002387B00222044605690493BD
:1045E800CDE90223D0E902128E00FAB1022D7AD069
:1045F8002178B5FA85F54FF00108276A0B294FEAAB
:10460800551521D1A2780B2A02D0B8F1000F38D164
:1046180023790B2B01D0002D6CD1A37917B10B2B6B
:1046280040F09980002007B0BDE8F08335F0020320
:104638002178276A0CBF4FF001084FF00008023DAF
:1046480018BF01250B29DDD07D4B94F801C053F824
:10465800262010780B2802D0884200F0AD80D3784D
:10466800D01C994202D10B2B40F0BD809379901D4C
:104678008B4202D10B2B40F0BC80012007B0BDE873
:10468800F083711C6E4BE07853F8213019780B29B0
:1046980002D08A4200F0B580D97803F1030C0B29C7
:1046A80002D08A4200F0BB80997903F1060C0B29ED
:1046B800E3D08A42E1D1DB798342DED1634604F15B
:1046C80002099B784846059301F0F6F8804648466B
:1046D80001F0FAF801A90190404603F07BFB237929
:1046E8000B2B98D199E70178076A0B2940F086804F
:1046F80001258DE7B11C524A607952F821201178C2
:104708000B2902D08B4200F08180D178D51C0B296F
:1047180002D08B4200F08D809179951D8B42ACD1EF
:104728000B29AAD0D3798342A7D12A46251D93788D
:104738002846059301F0C0F8034628461D4601F0B7
:10474800C3F801A90190284603F044FBA379002F80
:104758007FF465AF66E7F11C394AE07952F8212009
:1047680011780B2901D08B425FD0D178D51C0B2949
:1047780001D08B424FD09179951D8B427FF47DAF4C
:104788000B293FF47AAFD37983427FF476AF2A4678
:10479800A51D93782846059301F08EF8044628460F
:1047A80001F092F8034601A92046019303F012FB99
:1047B800002007B0BDE8F083537863457FF44FAF1E
:1047C80093782046059301F077F88146204601F05A
:1047D8007BF801A90190484603F0FCFAA2780B2A5D
:1047E8007FF413AF14E7137963457FF43FAF0246B4
:1047F800E6E7D37963457FF440AFF8E798460125AB
:1048080022E7597881427FF447AF58E751788142CF
:104818007FF47BAF8AE711798142ACD1B7E7197988
:1048280081427FF441AF634649E7517881429CD188
:10483800AEE7117981427FF46FAF2A4676E700BF71
:10484800DC460108654A0368934200F0B980A2F586
:104858007842934200F0B68002F58062934200F0FD
:10486800B38002F57842934200F0B08002F5E0523E
:10487800934200F0AD805A4A934240F0AB80052342
:104888004FF4D071574A01FB03F310B5D418D05C2C
:1048980086B001F021F8A07801F01EF8207901F027
:1048A8001BF8A07901F018F8A368052B11D8DFE8E8
:1048B80003F0192F455B71034B4BD3F8F42042F0FA
:1048C8002002C3F8F420D3F8F43003F02003059352
:1048D800059B2046FFF77CFE012801D006B010BDDD
:1048E800FFBEFEE7404B00222320D3F8F01041F42E
:1048F8008051C3F8F0101146D3F8F03003F4805318
:104908000093009B01F004FF232001F03FFFE0E744
:10491800354B00222420D3F8E81041F48041C3F835
:10492800E8101146D3F8E83003F480430193019B63
:1049380001F0EEFE242001F029FFCAE72A4B0022ED
:104948003320D3F8E81041F40041C3F8E8101146C9
:10495800D3F8E83003F400430293029B01F0D8FE39
:10496800332001F013FFB4E71F4B00225420D3F883
:10497800F01041F40051C3F8F0101146D3F8F030AC
:1049880003F400530393039B01F0C2FE542001F08B
:10499800FDFE9EE7144B00225520D3F8F01041F499
:1049A8008011C3F8F0101146D3F8F03003F48013E7
:1049B8000493049B01F0ACFE552001F0E7FE88E764
:1049C80000235DE701235BE7022359E7032357E749
:1049D800042355E700231B78FFDE00BF00300140A9
:1049E800001400582C170024004402582DE9F04305
:1049F800002289B01B4B01210DF1040C9E461A4B75
:104A08000791E146E04667460EF11C060EF13805AF
:104A18000EF15404CDE90122CDE90322CDE90522A6
:104A2800FF221A70BCE80F00AEE80F009CE80700F0
:104A38008EE80700B9E80F000FC69CE8070086E873
:104A48000700B8E80F000FC59CE8070085E80700D5
:104A58000FCF0FC49CE8070084E8070009B0BDE841
:104A6800F08300BF0C0100245021002401480AF003
:104A78003DB900BF5417002401480AF037B900BFF8
:104A8800F418002401480AF031B900BF941A002430
:104A980001480AF02BB900BF341C002401480AF071
:104AA80025B900BFD41D002410B5EFF3108472B6E9
:104AB800084B1A78120602D504B962B610BD1B78E5
:104AC8004FF4D07204485BB202FB0300B03002F02E
:104AD8002FFEF1E7502100242C17002410B5EFF326
:104AE800108472B6094B1A78120602D504B962B658
:104AF80010BD1B784FF4D07205485BB202FB03006F
:104B080000F5947002F014FEF0E700BF5021002475
:104B18002C1700242DE9F04184B0EFF3108772B60A
:104B2800284AFF21284C1368217023B10021116005
:104B3800264A1068984723781B061CD5DFF894800E
:104B48000025234E4446216879B162686AB1A36999
:104B5800012B22D0A3B963693046019323690093DE
:104B6800E3682289FFF76AFC18B301351C3406F59F
:104B7800D076042DE7D107B962B604B0BDE8F0815C
:104B8800D4E90430CDE90130E0682389009030464B
:104B9800FFF7B8FC0028E8D10BE0D4E9043011464F
:104BA800CDE900303046E3682289FFF7E3FB0028AF
:104BB800DBD1C5EBC50508EB850348F8250058602F
:104BC800D9E700BF4C21002450210024542100249F
:104BD8002C1700240C0100242DE9F04184B0EFF3D8
:104BE800108772B6284AFF21284C1368217023B118
:104BF80000211160264A1068984723781B061CD5A7
:104C0800DFF894800025234E4446216879B1626814
:104C18006AB1A369012B22D0A3B963693046019315
:104C280023690093E3682289FFF708FC18B301356C
:104C38001C3406F5D076042DE7D107B962B604B066
:104C4800BDE8F081D4E90430CDE90130E06823897A
:104C580000903046FFF756FC0028E8D10BE0D4E975
:104C680004301146CDE900303046E3682289FFF769
:104C780081FB0028DBD1C5EBC50508EB850348F8A7
:104C880025005860D9E700BF4C210024502100249A
:104C9800542100242C1700240C0100242DE9F04194
:104CA80084B0EFF3108772B6284AFF21284C1368A6
:104CB800217023B100211160264A10689847237893
:104CC8001B061CD5DFF894800025234E4446216836
:104CD80079B162686AB1A369012B22D0A3B963696B
:104CE8003046019323690093E3682289FFF7A6FB06
:104CF80018B301351C3406F5D076042DE7D107B971
:104D080062B604B0BDE8F081D4E90430CDE90130E1
:104D1800E068238900903046FFF7F4FB0028E8D1CB
:104D28000BE0D4E904301146CDE900303046E368A1
:104D38002289FFF71FFB0028DBD1C5EBC50508EB6F
:104D4800850348F825005860D9E700BF4C210024A6
:104D580050210024542100242C1700240C01002485
:104D68002DE9F04184B0EFF3108772B608F0CAFE5F
:104D7800284A294CFF21136821702BB100211160AA
:104D88000121264A1068984723781B061CD5DFF8AE
:104D980094800025224E4446216879B162686AB140
:104DA800A369012B22D0A3B9636930460193236913
:104DB8000093E3682289FFF741FB18B301351C34DF
:104DC80006F5D076042DE7D107B962B604B0BDE880
:104DD800F081D4E90430CDE90130E06823890090FE
:104DE8003046FFF78FFB0028E8D10BE0D4E9043008
:104DF8001146CDE900303046E3682289FFF7BAFA58
:104E08000028DBD1C5EBC50508EB850348F825006C
:104E18005860D9E74C210024502100245421002453
:104E28002C1700240C0100242DE9F0418F684FF461
:104E3800D0743E4E8C4607FB04F4052F06EB0405A0
:104E48000560AE46BCE80F00AEE80F00BCE80F00F6
:104E5800AEE80F009CE803008EE8030004D8EB6876
:104E6800002B60D0012B02D00120BDE8F081002189
:104E78004FF4D07303FB07631A69032AF4D8D3F8F5
:104E880014C0ACF104001C28EED89B691BB1012B9F
:104E9800EAD14FF000734FF4D07000FB0760C0698F
:104EA80018B10128E0D14FF080704FF4D07505FBA0
:104EB8000765D5F820E0BEF1020FD5D8D5F82480D3
:104EC800B8F1070FD0D85204E962C5E90E300CF1E9
:104ED800FF332A6304F128006B634FEA08733044F8
:104EE8006B640023C5E91233C5E91433C5E91833E7
:104EF800C5E91A33C5E91C33AB67C5F880300C4BDC
:104F080053F82E200B4B2A644FF0804253F8273079
:104F1800EA65AB624FF00043EB6708F0F3FD002849
:104F2800A3D0FFBEFEE74FF48001A1E72C170024B1
:104F3800CC460108B4460108006892B208B528308A
:104F480008F08EFE003818BF012008BD006808B5BB
:104F5800283009F0F5F9003818BF012008BD00BF56
:104F680030B4544B002108220220534CD9615862B6
:104F7800C3F8BC11C3F8C401C3F85C13C3F86403D5
:104F8800C3F8F424C3F8F814C3F8FC14C3F80405F0
:104F9800C3F89426C3F89816C3F89C16C3F8A40659
:104FA800C3F83428C3F83818C3F83C18C3F84408C1
:104FB800424D4348C3E90521C3E96D21C3E9D52121
:104FC8002288A3783F49EA80CA800B723E492B7237
:104FD800CA800B722168A0F803204371C280037253
:104FE8003A4C3B48E2802372A0F80320394C4371C5
:104FF800C28003723848E2802372A0F80320374C3D
:105008004371C2800372080C2180A070A4F80320A9
:105018006371E2802372324C324D2180A070A4F873
:1050280003206371E28023722F4CEA8021802B7267
:10503800A070A4F803206371E28023722B4C2180B6
:10504800A070A4F803206371E2802372284C2180A9
:10505800A070A4F803206371E2802372254C21809C
:10506800A070A4F803206371E2802372224C21808F
:10507800A070A4F803206371E28023721F4C218082
:105088001F49A070A4F803201E486371E2802372B0
:10509800A1F803201C4C4B71CA800B721B49E2809B
:1050A8002372C2800372A1F803204B71CA800B726D
:1050B80030BC70472C170024D846010894000024FF
:1050C800B8000024880000244C000024A00000241C
:1050D800DC000024C4000024640000241C210024F7
:1050E80004210024D000002410210024EC200024F6
:1050F800402100242821002434210024F820002401
:1051080000010024F4000024E800002470000024BA
:10511800704700BF08B500F0DFFCBDE8084001F0AB
:10512800BFBB00BF064808B503680BB103F064F8BD
:10513800044803681BB1BDE8084005F071BA08BD12
:105148006825002460210024064808B503680BB1CF
:1051580003F052F8044803681BB1BDE8084005F0A5
:105168005FBA08BD6825002460210024064808B5F8
:1051780003680BB103F040F8044803681BB1BDE8AD
:10518800084005F04DBA08BD6825002460210024B8
:10519800364BDA6A520062D59A6A9A6A9A6A9B6AA8
:1051A800180600D500BE314B9B6A990600D500BE93
:1051B8002E4B9B6ADA0600D500BE2C4B9B6A1B0758
:1051C80000D500BE294B9B6A980700D500BE274B27
:1051D8009B6AD90700D500BE244B9B6A1A0400D5E8
:1051E80000BE224B9B6A9B0400D500BE1F4B9B6AE6
:1051F800D80400D500BE1D4B9B6A190500D500BE1A
:105208001A4B9B6A5A0500D500BE184B9B6A9B0532
:1052180000D500BE154B9B6AD80500D500BE134BC0
:105228009B6A990100D500BE104B9B6ADA0100D534
:1052380000BE0E4B9B6A1B0300D500BE0B4B9B6A3E
:10524800580300D500BE094B9B6A990300D500BEE0
:10525800064B9B6ADA0306D400BE00BEFEE7DB6A93
:105268009B07FAD5F8E700BEF6E700BF00ED00E0BF
:1052780000F03EBC00F042BC0A4B9B6803F1784347
:10528800B3F5003F0BD3084B986848B198680128DC
:1052980006D09868022803D09B6803207047012035
:1052A800704700BF00ED00E0000080382DE9F041B4
:1052B800CEB004464C2200210AA80FF081F9202222
:1052C800002102A80FF07CF9BC2200211EA80FF0D3
:1052D80077F9022005F018FE2368012B4FF0000330
:1052E80054D0534A02250193C820D16A514B21F06A
:1052F8000101D162D26A02F0010201929A6942F474
:1053080040429A619B6903F440430193019B494AD7
:1053180093699B04FCD548490224002201268B6A24
:1053280004274FF0080823F0030323438B62052367
:1053380016900AA818934FF480331096179419946E
:105348001597CDF86880CDE91B222122CDE91344B9
:10535800CDE90A2306F0C2FA00B1FEE73F22032393
:10536800294602A8CDE9022300220823CDE9042317
:1053780040224023CDE9062340234FF48062CDE943
:10538800082306F0D9FD0346B8B1FEE7294A0425EB
:105398000093F0209169264B41F440419161926954
:1053A80002F440420092DA6A42F00102DA62DB6AF1
:1053B80003F001030093009BA9E720224FF48051DA
:1053C80025934FF440152B9280222D931EA83093DD
:1053D800269135914FF48071249234920C223394A3
:1053E800439140F2271120921022CDF884802A9709
:1053F8001F96CDE92E34CDE93B334FF48033CDE908
:1054080022463193002446930623CDE93E4527934F
:105418004FF48063094C2C931E94CDE9281206F0B2
:10542800E7FF00B1FEE705F095FD4EB0BDE8F0815D
:105438000004005800480258004402580F130F0394
:1054480070B584B0012401F0D9F94FF480764FF09B
:105458004052194B68460025ADF800400396CDE947
:10546800012301F0E9F919224FF0404368468DF80D
:10547800082001938DF80F40ADF80D608DF80140BC
:105488008DF80A5001F0D8F902230B2268468DF8EE
:105498000F508DF801304FF062538DF808200193BA
:1054A800ADF80D408DF80A4001F0C6F9042001F06E
:1054B800B3F904B070BD00BF0E00010330B50D464E
:1054C800044685B0D1E9000184E8030000F0D4FA6D
:1054D800AB79A3B30CF042FBFDF742FEFFF786FA67
:1054E8000CF03EF82B798BBB6B799BB1BFF34F8FD8
:1054F800BFF36F8F2A4B0022C3F85022BFF34F8FA0
:10550800BFF36F8F5A6942F400325A61BFF34F8F6D
:10551800BFF36F8F4FF0FF32002300240025694648
:10552800204802928DF80C30CDE900450BF0AAFB1B
:105538001C480BF00FFC0BF05DFA05B030BD20469F
:10554800FFF7B4FE2046FFF77BFFC3E7144C0023A8
:10555800C4F88430BFF34F8FD4F8801043F6E07E50
:10556800C1F34E3CC1F3C9014FEA4C1C0CEA0E00D2
:105578000B4640EA8372013BC4F860225A1CF8D1FA
:10558800ACF1200C1CF1200FF0D1BFF34F8F6369F1
:1055980043F480336361BFF34F8FBFF36F8FA3E78B
:1055A80000ED00E05821002406F0F6BD06F010BE1C
:1055B8001C4B9B6803F17842B2F5003F25D3B3F545
:1055C800803F20D303F16042B2F5003F1FD303F1BF
:1055D8005C42B2F5002F1CD303F17042B2F5902F54
:1055E80019D303F14842B2F5803F16D303F1804244
:1055F800B2F1806F13D303F1E043B3F5000F2CBF72
:1056080008200720704701207047002070470220BB
:105618007047032070470420704705207047062014
:10562800704700BF00ED00E003480023034A044927
:1056380003600EF0B9BB00BF58210024000000240D
:105648001951000810B4204C0022204B83B0D4F824
:1056580088101F4841F47001C4F8881019681D4C5F
:1056680041F0010119601A61196808401A49186067
:105678009A61DA611A629A62DA621A635A639A6301
:10568800DA631A645A64186820F4802018601A666D
:10569800D3F8DC2042F06042C3F8DC20D3F8DC30D9
:1056A8000193019B23681940B1F1005F03D20B4BB2
:1056B8000122C3F80821044B4FF000629A6003B03E
:1056C8005DF8044B704700BF00ED00E0004402584D
:1056D8007FEDF6EA0010005C0000FFFF008000513B
:1056E80000F57171D0F804040AF06CBDC1EBC10378
:1056F80000EB8303D0F80404D3F808220AF090BD25
:10570800C1EBC10300EB8303D0F804049A6C0AF0E0
:10571800C5BD00BFD0F804040AF064BEC16810B566
:10572800044619B1022900D0FEE70121D4F8040487
:105738000AF042FED4F80404BDE810400AF014BE92
:1057480010B50446D0F804040AF03AFE2268D2F8EC
:10575800003E43F00103C2F8003E236A23B1034A26
:10576800136943F00603136110BD00BF00ED00E0AC
:10577800D0F804040AF02EBED0F804040AF042BEA1
:10578800D0F804040AF03CBED0F804040AF03CBE89
:10579800D0F804040AF03ABE9446D0F898021A46A3
:1057A80008B5634605F0A0FA032802D8024B185C36
:1057B80008BD022008BD00BF4C470108D0F8980278
:1057C80008B505F01FFB032802D8024B185C08BD7A
:1057D800022008BD4C470108D0F8980208B505F02A
:1057E80055FB032802D8024B185C08BD022008BDEF
:1057F8004C4701080A06D0F8983206D4C1EBC1011B
:1058080003EB810191F8FE01704701F07F01C1EBC4
:10581800C10103EB810191F83E007047D0F898026E
:1058280008B505F04BFA032802D8024B185C08BDEE
:10583800022008BD4C470108D0F8980208B505F0C9
:10584800B9FA032802D8024B185C08BD022008BD2B
:105858004C470108D0F8980208B505F083FA0328E8
:1058680002D8024B185C08BD022008BD4C4701084D
:10587800D0F8C0020BF078B8D0F8C0020BF08CB8A2
:10588800D0F8C0020BF094B8704700BFD0F8C0023F
:105898000BF07AB8D0F8C0020BF07AB8D0F8D00381
:1058A80008B503F069F8032802D8024B185C08BD54
:1058B800022008BD50470108024B027853F8220025
:1058C800704700BF74470108024B427833F8120052
:1058D800704700BF544701088CB00A2814D8DFE885
:1058E80000F01523313F4D5B6977859306004D4BDA
:1058F800D3F8E02042F48062C3F8E020D3F8E03027
:1059080003F480630B930B9B0CB07047454BD3F8A3
:10591800E02042F00102C3F8E020D3F8E03003F0C1
:1059280001030193019BEFE73E4BD3F8E02042F0DF
:105938000202C3F8E020D3F8E03003F00203029338
:10594800029BE1E7374BD3F8E02042F00402C3F8AA
:10595800E020D3F8E03003F004030393039BD3E77C
:10596800304BD3F8E02042F00802C3F8E020D3F827
:10597800E03003F008030493049BC5E7294BD3F8F0
:10598800E02042F01002C3F8E020D3F8E03003F042
:1059980010030593059BB7E7224BD3F8E02042F0AC
:1059A8002002C3F8E020D3F8E03003F02003069388
:1059B800069BA9E71B4BD3F8E02042F04002C3F84E
:1059C800E020D3F8E03003F040030793079B9BE700
:1059D800144BD3F8E02042F08002C3F8E020D3F85B
:1059E800E03003F080030893089B8DE70D4BD3F854
:1059F800E02042F48072C3F8E020D3F8E03003F4EA
:105A080080730993099B7FE7064BD3F8E02042F4A3
:105A18000072C3F8E020D3F8E03003F400730A936F
:105A28000A9B71E700440258704700BF0F4B1B7870
:105A38000BB90120704710B504464FF47A700C4A30
:105A4800B0FBF3F31068B0FBF3F000F0C1FE0F2CCD
:105A580000D808B1012010BD002221464FF0FF30C8
:105A680000F056FE034B00201C6010BD840100248A
:105A78007C0100248801002438B50320124D00F071
:105A880035FE124C06F0B8F9114A12499369C3F36E
:105A98000323CB5C03F01F0320FA03F30E202B60D3
:105AA800926902F00F028A5C02F01F02D340236061
:105AB800FFF7BCFF10B10124204638BD0446FFF7AC
:105AC800B3FF204638BD00BF7C01002480010024BC
